{
  "_format": "hh-sol-artifact-1",
  "contractName": "TransferEntry",
  "sourceName": "contracts/TransferEntry.sol",
  "abi": [
    {
      "inputs": [
        {
          "internalType": "address",
          "name": "_lockin_token_address",
          "type": "address"
        }
      ],
      "stateMutability": "nonpayable",
      "type": "constructor"
    },
    {
      "inputs": [],
      "name": "helix_settings",
      "outputs": [
        {
          "internalType": "address",
          "name": "tokenAddress",
          "type": "address"
        }
      ],
      "stateMutability": "view",
      "type": "function"
    },
    {
      "inputs": [],
      "name": "helix_token_address_for_lockin_eth",
      "outputs": [
        {
          "internalType": "address",
          "name": "",
          "type": "address"
        }
      ],
      "stateMutability": "view",
      "type": "function"
    },
    {
      "inputs": [
        {
          "internalType": "uint256",
          "name": "_amount",
          "type": "uint256"
        }
      ],
      "name": "send",
      "outputs": [],
      "stateMutability": "nonpayable",
      "type": "function"
    }
  ],
  "bytecode": "0x608060405234801561001057600080fd5b50604051610a0d380380610a0d83398181016040528101906100329190610101565b6040518060200160405280600073ffffffffffffffffffffffffffffffffffffffff168152506000808201518160000160006101000a81548173ffffffffffffffffffffffffffffffffffffffff021916908373ffffffffffffffffffffffffffffffffffffffff160217905550905050806000800160006101000a81548173ffffffffffffffffffffffffffffffffffffffff021916908373ffffffffffffffffffffffffffffffffffffffff16021790555050610173565b6000815190506100fb8161015c565b92915050565b60006020828403121561011357600080fd5b6000610121848285016100ec565b91505092915050565b60006101358261013c565b9050919050565b600073ffffffffffffffffffffffffffffffffffffffff82169050919050565b6101658161012a565b811461017057600080fd5b50565b61088b806101826000396000f3fe608060405234801561001057600080fd5b50600436106100415760003560e01c80630b6a68e614610046578063a52c101e14610064578063c0bc95fb14610080575b600080fd5b61004e61009e565b60405161005b91906105ce565b60405180910390f35b61007e6004803603810190610079919061049d565b6100c4565b005b610088610118565b60405161009591906105ce565b60405180910390f35b600160009054906101000a900473ffffffffffffffffffffffffffffffffffffffff1681565b6101153330836000800160009054906101000a900473ffffffffffffffffffffffffffffffffffffffff1673ffffffffffffffffffffffffffffffffffffffff16610144909392919063ffffffff16565b50565b60008060000160009054906101000a900473ffffffffffffffffffffffffffffffffffffffff16905081565b6101c7846323b872dd60e01b858585604051602401610165939291906105e9565b604051602081830303815290604052907bffffffffffffffffffffffffffffffffffffffffffffffffffffffff19166020820180517bffffffffffffffffffffffffffffffffffffffffffffffffffffffff83818316178352505050506101cd565b50505050565b600061022f826040518060400160405280602081526020017f5361666545524332303a206c6f772d6c6576656c2063616c6c206661696c65648152508573ffffffffffffffffffffffffffffffffffffffff166102949092919063ffffffff16565b905060008151111561028f578080602001905181019061024f9190610474565b61028e576040517f08c379a000000000000000000000000000000000000000000000000000000000815260040161028590610682565b60405180910390fd5b5b505050565b60606102a384846000856102ac565b90509392505050565b6060824710156102f1576040517f08c379a00000000000000000000000000000000000000000000000000000000081526004016102e890610642565b60405180910390fd5b6102fa856103c0565b610339576040517f08c379a000000000000000000000000000000000000000000000000000000000815260040161033090610662565b60405180910390fd5b6000808673ffffffffffffffffffffffffffffffffffffffff16858760405161036291906105b7565b60006040518083038185875af1925050503d806000811461039f576040519150601f19603f3d011682016040523d82523d6000602084013e6103a4565b606091505b50915091506103b48282866103e3565b92505050949350505050565b6000808273ffffffffffffffffffffffffffffffffffffffff163b119050919050565b606083156103f357829050610443565b6000835111156104065782518084602001fd5b816040517f08c379a000000000000000000000000000000000000000000000000000000000815260040161043a9190610620565b60405180910390fd5b9392505050565b60008151905061045981610827565b92915050565b60008135905061046e8161083e565b92915050565b60006020828403121561048657600080fd5b60006104948482850161044a565b91505092915050565b6000602082840312156104af57600080fd5b60006104bd8482850161045f565b91505092915050565b6104cf816106d4565b82525050565b60006104e0826106a2565b6104ea81856106b8565b93506104fa81856020860161071c565b80840191505092915050565b6000610511826106ad565b61051b81856106c3565b935061052b81856020860161071c565b6105348161074f565b840191505092915050565b600061054c6026836106c3565b915061055782610760565b604082019050919050565b600061056f601d836106c3565b915061057a826107af565b602082019050919050565b6000610592602a836106c3565b915061059d826107d8565b604082019050919050565b6105b181610712565b82525050565b60006105c382846104d5565b915081905092915050565b60006020820190506105e360008301846104c6565b92915050565b60006060820190506105fe60008301866104c6565b61060b60208301856104c6565b61061860408301846105a8565b949350505050565b6000602082019050818103600083015261063a8184610506565b905092915050565b6000602082019050818103600083015261065b8161053f565b9050919050565b6000602082019050818103600083015261067b81610562565b9050919050565b6000602082019050818103600083015261069b81610585565b9050919050565b600081519050919050565b600081519050919050565b600081905092915050565b600082825260208201905092915050565b60006106df826106f2565b9050919050565b60008115159050919050565b600073ffffffffffffffffffffffffffffffffffffffff82169050919050565b6000819050919050565b60005b8381101561073a57808201518184015260208101905061071f565b83811115610749576000848401525b50505050565b6000601f19601f8301169050919050565b7f416464726573733a20696e73756666696369656e742062616c616e636520666f60008201527f722063616c6c0000000000000000000000000000000000000000000000000000602082015250565b7f416464726573733a2063616c6c20746f206e6f6e2d636f6e7472616374000000600082015250565b7f5361666545524332303a204552433230206f7065726174696f6e20646964206e60008201527f6f74207375636365656400000000000000000000000000000000000000000000602082015250565b610830816106e6565b811461083b57600080fd5b50565b61084781610712565b811461085257600080fd5b5056fea26469706673582212206016bbda98c3fdafb98c6a3356185f04541856cab41e79abf487bf63173975b164736f6c63430008020033",
  "linkReferences": {},
  "deployedLinkReferences": {}
}