{
  "_format": "hh-sol-artifact-1",
  "contractName": "TransferEntry",
  "sourceName": "contracts/TransferEntry.sol",
  "abi": [
    {
      "inputs": [
        {
          "internalType": "address",
          "name": "_lockin_token_address",
          "type": "address"
        }
      ],
      "stateMutability": "nonpayable",
      "type": "constructor"
    },
    {
      "anonymous": false,
      "inputs": [
        {
          "indexed": false,
          "internalType": "uint256",
          "name": "amount",
          "type": "uint256"
        },
        {
          "indexed": false,
          "internalType": "address",
          "name": "receiver",
          "type": "address"
        }
      ],
      "name": "Sent",
      "type": "event"
    },
    {
      "inputs": [
        {
          "internalType": "uint256",
          "name": "_amount",
          "type": "uint256"
        }
      ],
      "name": "approve",
      "outputs": [],
      "stateMutability": "payable",
      "type": "function"
    },
    {
      "inputs": [],
      "name": "getContractBalance",
      "outputs": [
        {
          "internalType": "uint256",
          "name": "",
          "type": "uint256"
        }
      ],
      "stateMutability": "view",
      "type": "function"
    },
    {
      "inputs": [],
      "name": "getTokenAddress",
      "outputs": [
        {
          "internalType": "address",
          "name": "",
          "type": "address"
        }
      ],
      "stateMutability": "view",
      "type": "function"
    },
    {
      "inputs": [],
      "name": "getTokenBalance",
      "outputs": [
        {
          "internalType": "uint256",
          "name": "",
          "type": "uint256"
        }
      ],
      "stateMutability": "view",
      "type": "function"
    },
    {
      "inputs": [],
      "name": "helix_settings",
      "outputs": [
        {
          "internalType": "address",
          "name": "tokenAddress",
          "type": "address"
        }
      ],
      "stateMutability": "view",
      "type": "function"
    },
    {
      "inputs": [],
      "name": "helix_token_address_for_lockin_eth",
      "outputs": [
        {
          "internalType": "address",
          "name": "",
          "type": "address"
        }
      ],
      "stateMutability": "view",
      "type": "function"
    },
    {
      "inputs": [
        {
          "internalType": "uint256",
          "name": "_amount",
          "type": "uint256"
        },
        {
          "internalType": "address",
          "name": "_receiver",
          "type": "address"
        }
      ],
      "name": "send",
      "outputs": [],
      "stateMutability": "payable",
      "type": "function"
    }
  ],
  "bytecode": "0x608060405234801561001057600080fd5b50604051610ec8380380610ec883398181016040528101906100329190610142565b6040518060200160405280600073ffffffffffffffffffffffffffffffffffffffff168152506000808201518160000160006101000a81548173ffffffffffffffffffffffffffffffffffffffff021916908373ffffffffffffffffffffffffffffffffffffffff160217905550905050806000800160006101000a81548173ffffffffffffffffffffffffffffffffffffffff021916908373ffffffffffffffffffffffffffffffffffffffff16021790555080600160006101000a81548173ffffffffffffffffffffffffffffffffffffffff021916908373ffffffffffffffffffffffffffffffffffffffff160217905550506101b4565b60008151905061013c8161019d565b92915050565b60006020828403121561015457600080fd5b60006101628482850161012d565b91505092915050565b60006101768261017d565b9050919050565b600073ffffffffffffffffffffffffffffffffffffffff82169050919050565b6101a68161016b565b81146101b157600080fd5b50565b610d05806101c36000396000f3fe6080604052600436106100705760003560e01c8063785d04f51161004e578063785d04f5146100f657806382b2e25714610112578063b759f9541461013d578063c0bc95fb1461015957610070565b80630b6a68e61461007557806310fe9ae8146100a05780636f9fb98a146100cb575b600080fd5b34801561008157600080fd5b5061008a610184565b60405161009791906109c4565b60405180910390f35b3480156100ac57600080fd5b506100b56101aa565b6040516100c291906109c4565b60405180910390f35b3480156100d757600080fd5b506100e06101d4565b6040516100ed9190610ac1565b60405180910390f35b610110600480360381019061010b9190610880565b610288565b005b34801561011e57600080fd5b50610127610316565b6040516101349190610ac1565b60405180910390f35b6101576004803603810190610152919061082e565b6103ca565b005b34801561016557600080fd5b5061016e61047f565b60405161017b91906109c4565b60405180910390f35b600160009054906101000a900473ffffffffffffffffffffffffffffffffffffffff1681565b6000600160009054906101000a900473ffffffffffffffffffffffffffffffffffffffff16905090565b60008060000160009054906101000a900473ffffffffffffffffffffffffffffffffffffffff1673ffffffffffffffffffffffffffffffffffffffff166370a08231306040518263ffffffff1660e01b815260040161023391906109c4565b60206040518083038186803b15801561024b57600080fd5b505afa15801561025f573d6000803e3d6000fd5b505050506040513d601f19601f820116820180604052508101906102839190610857565b905090565b6102d93330846000800160009054906101000a900473ffffffffffffffffffffffffffffffffffffffff1673ffffffffffffffffffffffffffffffffffffffff166104ab909392919063ffffffff16565b7fce0f36b64910d314caed8f8461c289a41c154bc8310f16ac58dd956daae3ebf6828260405161030a929190610adc565b60405180910390a15050565b60008060000160009054906101000a900473ffffffffffffffffffffffffffffffffffffffff1673ffffffffffffffffffffffffffffffffffffffff166370a08231336040518263ffffffff1660e01b815260040161037591906109c4565b60206040518083038186803b15801561038d57600080fd5b505afa1580156103a1573d6000803e3d6000fd5b505050506040513d601f19601f820116820180604052508101906103c59190610857565b905090565b6000800160009054906101000a900473ffffffffffffffffffffffffffffffffffffffff1673ffffffffffffffffffffffffffffffffffffffff1663095ea7b333836040518363ffffffff1660e01b8152600401610429929190610a16565b602060405180830381600087803b15801561044357600080fd5b505af1158015610457573d6000803e3d6000fd5b505050506040513d601f19601f8201168201806040525081019061047b9190610805565b5050565b60008060000160009054906101000a900473ffffffffffffffffffffffffffffffffffffffff16905081565b61052e846323b872dd60e01b8585856040516024016104cc939291906109df565b604051602081830303815290604052907bffffffffffffffffffffffffffffffffffffffffffffffffffffffff19166020820180517bffffffffffffffffffffffffffffffffffffffffffffffffffffffff8381831617835250505050610534565b50505050565b6000610596826040518060400160405280602081526020017f5361666545524332303a206c6f772d6c6576656c2063616c6c206661696c65648152508573ffffffffffffffffffffffffffffffffffffffff166105fb9092919063ffffffff16565b90506000815111156105f657808060200190518101906105b69190610805565b6105f5576040517f08c379a00000000000000000000000000000000000000000000000000000000081526004016105ec90610aa1565b60405180910390fd5b5b505050565b606061060a8484600085610613565b90509392505050565b606082471015610658576040517f08c379a000000000000000000000000000000000000000000000000000000000815260040161064f90610a61565b60405180910390fd5b61066185610727565b6106a0576040517f08c379a000000000000000000000000000000000000000000000000000000000815260040161069790610a81565b60405180910390fd5b6000808673ffffffffffffffffffffffffffffffffffffffff1685876040516106c991906109ad565b60006040518083038185875af1925050503d8060008114610706576040519150601f19603f3d011682016040523d82523d6000602084013e61070b565b606091505b509150915061071b82828661074a565b92505050949350505050565b6000808273ffffffffffffffffffffffffffffffffffffffff163b119050919050565b6060831561075a578290506107aa565b60008351111561076d5782518084602001fd5b816040517f08c379a00000000000000000000000000000000000000000000000000000000081526004016107a19190610a3f565b60405180910390fd5b9392505050565b6000813590506107c081610c8a565b92915050565b6000815190506107d581610ca1565b92915050565b6000813590506107ea81610cb8565b92915050565b6000815190506107ff81610cb8565b92915050565b60006020828403121561081757600080fd5b6000610825848285016107c6565b91505092915050565b60006020828403121561084057600080fd5b600061084e848285016107db565b91505092915050565b60006020828403121561086957600080fd5b6000610877848285016107f0565b91505092915050565b6000806040838503121561089357600080fd5b60006108a1858286016107db565b92505060206108b2858286016107b1565b9150509250929050565b6108c581610b37565b82525050565b60006108d682610b05565b6108e08185610b1b565b93506108f0818560208601610b7f565b80840191505092915050565b600061090782610b10565b6109118185610b26565b9350610921818560208601610b7f565b61092a81610bb2565b840191505092915050565b6000610942602683610b26565b915061094d82610bc3565b604082019050919050565b6000610965601d83610b26565b915061097082610c12565b602082019050919050565b6000610988602a83610b26565b915061099382610c3b565b604082019050919050565b6109a781610b75565b82525050565b60006109b982846108cb565b915081905092915050565b60006020820190506109d960008301846108bc565b92915050565b60006060820190506109f460008301866108bc565b610a0160208301856108bc565b610a0e604083018461099e565b949350505050565b6000604082019050610a2b60008301856108bc565b610a38602083018461099e565b9392505050565b60006020820190508181036000830152610a5981846108fc565b905092915050565b60006020820190508181036000830152610a7a81610935565b9050919050565b60006020820190508181036000830152610a9a81610958565b9050919050565b60006020820190508181036000830152610aba8161097b565b9050919050565b6000602082019050610ad6600083018461099e565b92915050565b6000604082019050610af1600083018561099e565b610afe60208301846108bc565b9392505050565b600081519050919050565b600081519050919050565b600081905092915050565b600082825260208201905092915050565b6000610b4282610b55565b9050919050565b60008115159050919050565b600073ffffffffffffffffffffffffffffffffffffffff82169050919050565b6000819050919050565b60005b83811015610b9d578082015181840152602081019050610b82565b83811115610bac576000848401525b50505050565b6000601f19601f8301169050919050565b7f416464726573733a20696e73756666696369656e742062616c616e636520666f60008201527f722063616c6c0000000000000000000000000000000000000000000000000000602082015250565b7f416464726573733a2063616c6c20746f206e6f6e2d636f6e7472616374000000600082015250565b7f5361666545524332303a204552433230206f7065726174696f6e20646964206e60008201527f6f74207375636365656400000000000000000000000000000000000000000000602082015250565b610c9381610b37565b8114610c9e57600080fd5b50565b610caa81610b49565b8114610cb557600080fd5b50565b610cc181610b75565b8114610ccc57600080fd5b5056fea2646970667358221220b4107b8aa6cb19021362f99f3eca0e505600cb5ea77c5287d0e8523dde74e11864736f6c63430008020033",
  "linkReferences": {},
  "deployedLinkReferences": {}
}